S018000073696D706C655F746F7563685F786732312E7333372F
S113000000800120510300007D0300007D030000F7
S11300107D0300007D0300007D0300007D030000DC
S11300207D0300007D0300007D0300007D030000CC
S11300307D0300007C0300007D030000D11200005A
S11300407D0300007D0300007D0300007D030000AC
S11300507D0300007D030000190600007D030000FD
S11300607D0300007D0300007D0300007D0300008C
S11300707D0300007D0300007D0300007D0300007C
S11300807D0300007D0300007D0300007D0300006C
S11300907D0300007D0300007D0300007D0300005C
S11300A07D0300007D0300007D0300007D0300004C
S11300B07D0300007D0300007D0300007D0300003C
S11300C07D0300007D0300007D0300007D0300002C
S11300D07D0300007D0300007D0300007D0300001C
S11300E07D0300007D0300007D0300007D0300000C
S11300F07D0300007D0300007D0300007D030000FC
S11301007D0300007D0300007D0300007D030000EB
S11301107D0300007D0300007D0300007D030000DB
S11301207D0300007D0300007D0300007D030000CB
S11301307D03000010B5054C237833B9044B13B18B
S1130140044800E000BF0123237010BD74000020A8
S1130150000000004C14000008B5034B1BB1034918
S1130160034800E000BF08BD000000007800002044
S11301704C140000154B002B08BF134B9D46A3F5F0
S1130180803A00218B460F461348144A121A01F094
S113019035F90F4B002B00D098470E4B002B00D0A5
S11301A098470020002104000D000D48002802D0CB
S11301B00C4800E000BF01F0FDF82000290001F028
S11301C0ADF801F0E3F800BF000008000080012052
S11301D0000000000000000074000020A0000020C7
S11301E0000000000000000080B483B000AF0346AC
S11301F03960FB71FB79002B07D0FB79012B04D00C
S1130200FB79022B01D0FB79032B01223B6802FA14
S113021003F30949FA79184613465B0013441B019A
S11302200B4403F500531033186000BF0C37BD4670
S11302305DF8047B704700BF00C0034080B483B006
S113024000AF03463960FB71FB79002B07D0FB79C3
S1130250012B04D0FB79022B01D0FB79032B012263
S11302603B6802FA03F30949FA79184613465B001E
S113027013441B010B4403F580531033186000BF73
S11302800C37BD465DF8047B704700BF00C00340D7
S113029080B582B000AF00237B600FE00B4A7B681F
S11302A012F83300094A7B68DB00134459680023C1
S11302B0042200F03FFC7B6801337B607B68012BE8
S11302C0ECDD002318460837BD4680BD2814000025
S11302D080B582B000AF78607B68002B10DB7B6850
S11302E0012B0DDC094A7B6812F83300074A7B684E
S11302F0DB0013445B681946FFF776FF002301E037
S11303004FF0FF3318460837BD4680BD281400005F
S113031080B582B000AF78607B68002B10DB7B680F
S1130320012B0DDC094A7B6812F83300074A7B680D
S1130330DB0013445B681946FFF780FF002301E0EC
S11303404FF0FF3318460837BD4680BD281400001F
S1130350064880470649074A074B9A42BEBF51F8F0
S1130360040B42F8040BF8E7FFF704FF81030000D5
S1130370581400000000002074000020FEE700BFB5
S113038080B400AF074B084A9A60064BD3F8883014
S1130390044A43F47003C2F8883000BFBD465DF8D8
S11303A0047B704700ED00E00000000080B582B0DF
S11303B000AF00237B600E4B1B6F03F00703022B7F
S11303C004D0032B06D0012B08D00AE000F034F847
S11303D0786007E0074B1B687B6003E0064B7B609B
S11303E000E0FEE77B6818460837BD4680BD00BFC5
S11303F00080004000000020002D310180B582B053
S113040000AFFFF7D3FF7860094B1B6F1B0B03F0A2
S113041003033B603B6801337A68B2FBF3F37B6010
S1130420044A7B6813607B6818460837BD4680BD64
S1130430008000400800002080B400AF034B1B681C
S11304401846BD465DF8047B704700BF04000020D9
S113045080B483B000AF0346FB7197F90730002BDB
S11304600BDBFB7903F01F02074997F907305B099F
S1130470012000FA02F241F8232000BF0C37BD46E8
S11304805DF8047B704700BF00E100E080B483B0F6
S113049000AF03460A46FB711346BB7100BF0C371D
S11304A0BD465DF8047B704780B483B000AF7860CC
S11304B07B680D4A93420BD07B680C4A934207D069
S11304C07B680B4A934203D07B680A4A934201D16A
S11304D0012300E0002303F00103DBB218460C37CC
S11304E0BD465DF8047B70470080044000C00440B2
S11304F0000005400040054080B483B000AF786040
S11305004FF6FF7318460C37BD465DF8047B704701
S113051080B483B000AF78607B685B6A18460C37A0
S1130520BD465DF8047B704780B584B000AF786049
S113053039607868FFF7E0FF7B681B6B03F0010309
S1130540002B14BF01230023FB737B6803F5815345
S1130550103301221A607B683A685A62FB7B83F08D
S11305600103DBB2002B08D0786800F0F1FD7B6852
S113057003F50053303301221A6000BF1037BD4623
S113058080BD80B582B000AF78600B46FB707868A0
S1130590FFF78AFFFB78002B03D07B680122DA6027
S11305A002E07B680222DA6000BF0837BD4680BDE6
S11305B080B483B000AF786039607B6803F5005382
S11305C014333A681A6000BF0C37BD465DF8047BEB
S11305D0704780B483B000AF786039607B689A69F3
S11305E03B681A437B689A6100BF0C37BD465DF8CF
S11305F0047B704780B582B000AF7860396078685A
S1130600FFF77AFF7B681B6B7B683A68DA6100BF8F
S11306100837BD4680BD000080B582B000AF002120
S11306201748FFF7AEFF00211648FFF7AAFF012184
S11306301348FFF7BDFF1348FFF76AFF7860124BBA
S11306401B78DBB21946114A7B6842F821300E4B05
S11306501B78DBB21A460E4B53F822307A689A4262
S113066007D9094B1B78DBB21946094A7B6842F863
S11306702130084B01221A7000BF0837BD4680BDE7
S11306800080044000C0044090000020940000203A
S1130690980000209100002080B485B000AF03468C
S11306A0FB71FB790D4A52F82330FB60FB790B4A4E
S11306B052F823309B08FA68D31AFB60FB79084A86
S11306C052F82330FA689A4201D9012300E000234A
S11306D018461437BD465DF8047B70479800002027
S11306E09400002080B582B000AF0346FB71FB7913
S11306F01946134800F064F900211248FFF714FF6B
S113070000211148FFF710FF104B00221A7001213D
S11307100C48FFF74DFF01210A48FFF732FF012182
S11307200948FFF72EFF00BF084B1B78DBB283F0AC
S11307300103DBB2002BF7D100BF0837BD4680BDF3
S11307400080004A0080044000C004409100002062
S113075080B500AF0D4800F07DF90D4B00221A70F2
S11307600CE00B4B1B78A1231846FFF7BBFF084B8B
S11307701B78DBB20133DAB2054B1A70044B1B78D9
S1130780DBB2002BEDD000BF80BD00BF0080004A6B
S11307909000002090B591B000AF4A4B07F13004AF
S11307A00FCB84E80F0001211020FFF76FFE012119
S11307B01C20FFF76BFE01211D20FFF767FE0121BE
S11307C01A20FFF763FE01211420FFF75FFE07F1F3
S11307D0200300221A605A609A609A81012387F8E4
S11307E0203040F2FF137B84002387F8203007F188
S11307F020031946344800F09FFB0A213248FFF7D2
S1130800F9FE01213048FFF7E4FE07F1100300224E
S11308101A605A609A609A8101233B7440F2FF3354
S11308207B8201233B7500233B7407F110031946B7
S1130830254800F081FB4FF6FF710020FFF7DAFE38
S11308403B4600221A605A609A601A7302237B7036
S11308500123BB7102233B7001233B7201233B73D1
S11308600023BB703B461A460121184800F0E4FB04
S11308704FF4C0620121002000F08AFA07F130032E
S11308801946134800F060F8124BD3F82833114A84
S113089043F40033C2F82833002304220321022046
S11308A000F048F90B4B0C4AC3F85424094B0122BD
S11308B0C3F850240620FFF7CBFD00BF4437BD46E4
S11308C090BD00BF381400000080044000C0044004
S11308D00080004A00C003400200030080B485B0D9
S11308E000AF786039607B6803F58053FB60FB6878
S11308F03A681A6000BF1437BD465DF8047B704740
S113090080B485B000AF786039607B6803F500532C
S1130910FB60FB683A681A6000BF1437BD465DF897
S1130920047B704780B584B000AFF860B9607A602A
S1130930B968F868FFF7E4FF7968F868FFF7CEFF55
S113094000BF1037BD4680BD80B582B000AF78606F
S113095039607B68184A934202D07B68174A9342F5
S113096000BF786800F050F83B681B683A68127959
S113097012021A437B689A607B680022DA60786806
S113098000F068F83B685B791B071A463B689B6874
S11309901B04134343F440527B681A613B681B7B7E
S11309A083F00103DBB2002B02D0786800F02CF84E
S11309B000BF0837BD4680BD0080004A00C0004A21
S11309C080B582B000AF78600B46FB707B680C4A40
S11309D0934202D07B680B4A934200BF7B685B68FA
S11309E000BF7B681B6A002BFBD17B681033FA784D
S11309F0FF211846FFF796FF00BF0837BD4680BDAC
S1130A000080004A00C0004A80B483B000AF786020
S1130A107B680E4A934202D07B680D4A934200BF22
S1130A2000BF7B685B68002B03D07B681B6A002BCC
S1130A30F7D17B6803F50053043301221A6000BF29
S1130A400C37BD465DF8047B704700BF0080004A48
S1130A5000C0004A80B483B000AF78607B68094A64
S1130A60934202D07B68084A934200BF7B6803F537
S1130A708053043301221A6000BF0C37BD465DF871
S1130A80047B70470080004A00C0004A80B483B0F1
S1130A9000AF03463960FB71FB79002B07D0FB796B
S1130AA0012B04D0FB79022B01D0FB79032B01220B
S1130AB03B6802FA03F30949FA79184613465B00C6
S1130AC013441B010B4403F500531033186000BF9B
S1130AD00C37BD465DF8047B704700BF00C003407F
S1130AE080B483B000AF03463960FB71FB79002BFF
S1130AF007D0FB79012B04D0FB79022B01D0FB79C1
S1130B00032B01223B6802FA03F30949FA791846D8
S1130B1013465B0013441B010B4403F5805310334D
S1130B20186000BF0C37BD465DF8047B704700BFFA
S1130B3000C0034080B584B000AFB9607B60034659
S1130B40FB731346BB73FB7B002B07D0FB7B012B92
S1130B5004D0FB7B022B01D0FB7B032BBB7B002B44
S1130B600DD07B68002B05D0FB7BB9681846FFF7D6
S1130B70B7FF04E0FB7BB9681846FFF787FFBB6843
S1130B80072B20D82D49FA7B13465B0013441B0125
S1130B900B4404331A68BB689B000F2101FA03F36A
S1130BA0DB431340B97BBA68920001FA02F21146A2
S1130BB02248FA7B194313465B0013441B01034488
S1130BC00433196025E01D49FA7B13465B00134486
S1130BD01B010B440C331A68BB6803F18043083BC8
S1130BE09B000F2101FA03F3DB4302EA0301BA7B02
S1130BF0BB6803F18043083B9B0002FA03F30F48F0
S1130C00FA7B194313465B0013441B0103440C3362
S1130C101960BB7B002B0DD17B68002B05D0FB7BBF
S1130C20B9681846FFF75CFF04E0FB7BB968184617
S1130C30FFF72CFF00BF1037BD4680BD00C0034046
S1130C4080B485B000AF78600023FB607B68013B13
S1130C50252B5ED801A252F823F000BFF50C00004A
S1130C60130D0000130D0000130D0000130D000000
S1130C70130D0000130D0000130D0000130D0000F0
S1130C80130D0000130D0000130D0000130D0000E0
S1130C90130D0000130D0000130D0000130D0000D0
S1130CA0130D0000130D0000130D0000130D0000C0
S1130CB0130D0000130D0000130D0000130D0000B0
S1130CC0130D0000130D0000130D0000130D0000A0
S1130CD0130D0000130D0000130D0000130D000090
S1130CE0130D0000FB0C0000010D0000070D0000B7
S1130CF00D0D00000323FB600CE00123FB6009E001
S1130D000223FB6006E00423FB6003E00523FB6091
S1130D1000E000BFFB6818461437BD465DF8047B4D
S1130D20704700BF80B485B000AF786039603B681D
S1130D30FB607B68253B012B21D83B68042B1CD826
S1130D4001A252F823F000BF5D0D0000630D000006
S1130D50690D00006F0D0000750D00000323FB609A
S1130D600CE00423FB6009E00023FB6006E00123A0
S1130D70FB6003E00223FB6000E000BF00E000BF73
S1130D80FB6818461437BD465DF8047B704700BF06
S1130D9080B584B000AF78600B46FB7013463B808F
S1130DA03B881B0A03F07F03FB603B8803F00703C7
S1130DB0BB60FB78002B0BD1FB681A02BB681343A2
S1130DC00E4943F440227B68063341F8232011E0A6
S1130DD0B968F868FFF7A6FFB860F868FFF730FF56
S1130DE0F860FB681A020549BB681A437B68123332
S1130DF041F8232000BF1037BD4680BD008003406A
S1130E0080B485B000AF78600E4B5B69FB60FB6813
S1130E109B09DBB203F03F03DAB27B689A70FB688C
S1130E20DBB203F03F03DAB27B685A70FB681B0B3A
S1130E30DAB27B681A7000BF1437BD465DF8047BD4
S1130E40704700BF00C0074080B483B000AF786033
S1130E507B680D4A93420BD07B680C4A934207D0BF
S1130E607B680B4A934203D07B680A4A934201D1C0
S1130E70012300E0002303F00103DBB218460C3722
S1130E80BD465DF8047B70470080044000C0044008
S1130E90000005400040054080B487B000AFF86012
S1130EA0B9607A60FB70FB681E4A934214D0FB68F9
S1130EB01D4A93420ED0FB681C4A934208D0FB683B
S1130EC01B4A934201D1032307E04FF0FF3304E0B0
S1130ED0022302E0012300E000237B61154B3B6108
S1130EE0FB78002B0BD039697A6913465B001344F5
S1130EF05B00BA6813447A6841F823200BE07B68EE
S1130F00180239697A6913465B0013445B00BA68B6
S1130F10134441F8230000BF1C37BD465DF8047B31
S1130F20704700BF0080044000C00440000005403A
S1130F30004005401C81034080B584B000AF786058
S1130F4039607868FFF780FF0023FB60786800F061
S1130F50FFF87B6803F50053303301221A603B68C5
S1130F605B889A043B681B791B0213433A68527AE4
S1130F7013433A685278002A01D0402200E000224C
S1130F8013433A68927A002A01D0802200E00022BA
S1130F9013433A68D27A002A01D0202200E00022CA
S1130FA013433A68127B002A01D0102200E0002289
S1130FB013433A68527B002A01D0082200E0002241
S1130FC013433A689279002A02D04FF4803200E049
S1130FD000221A437B685A607B6803F581531033FF
S1130FE001221A603B681B7883F00103DBB2002BFB
S1130FF002D07B680222DA607B6800225A623B6876
S1131000DB799B003A68127A13433A685279002AD2
S113101001D0102200E000221343FB607B68FA68D1
S11310209A603B681B78002B02D07B680122DA604F
S113103000BF1037BD4680BD80B586B000AFF860F4
S1131040B9607A60F868FFF7FFFEF86800F080F88E
S1131050FB6803F50053303301221A607B689B79E7
S11310601A467B68DB79002B02D04FF4801300E032
S1131070002313437A68527A002A01D0102200E038
S113108000221A437B68DB7ADB041A43F968BB68E5
S113109003335B010B441A607B681B7A002B1FD05F
S11310A0FA68BB6803335B0113441A687B681B7BD3
S11310B05B041A43F968BB6803335B010B441A6091
S11310C07B681B7B012B14BF01230023FB757B680A
S11310D09B781A46FB7DB968F868FFF7DDFE0BE0E4
S11310E0FA68BB6803335B0113441A68F968BB6888
S11310F003335B010B441A60FB6803F5815310331F
S113110001221A607B681B789A067B685B781B0651
S11311101A437B68DB781B031A437B681B799B02A9
S11311201A437B685B791B0213437A68927A002A1C
S113113001D0042200E000221A43F968BB6803339B
S11311405B010B4404331A6000BF1837BD4680BDF1
S113115080B483B000AF786000BF7B681B6B03F082
S11311600103002B05D07B681B6903F04003002BAF
S1131170F3D100BF0C37BD465DF8047B7047000017
S113118080B483B000AF03463960FB7197F9073030
S1131190002B0ADB3B68DAB20C4997F907301201DD
S11311A0D2B20B4483F800230AE03B68DAB2084960
S11311B0FB7903F00F03043B1201D2B20B441A76FD
S11311C000BF0C37BD465DF8047B704700E100E0CA
S11311D000ED00E080B582B000AF78607B68013B31
S11311E0B3F1807F01D301230FE00A4A7B68013BFE
S11311F053600F214FF0FF30FFF7C2FF054B002271
S11312009A60044B07221A60002318460837BD462B
S113121080BD00BF10E000E080B500AFFFF7EEF83E
S11312200346184680BD000080B584B000AF3B1D66
S11312301846FFF7E5FD224B9B6D03F48033002B2A
S113124019D1204B1B6823F4FF0323F4FE431D4AEA
S113125043F4BC1343F4A06313601B4B1B6823F4D7
S11312607043194A43F440431360174B1B68164AF2
S113127043F4E06313607B79012B14D13B79002B99
S113128011D14FF00053FB600023BB6008E0FB6802
S11312901B68FB6803F58043FB60BB680133BB60DC
S11312A0BB68052BF3D9094BD3F88030074A43F0C8
S11312B00303C2F8803000BF1037BD4680BD00BFB5
S11312C000C0004034C0004030C0004000800040F6
S11312D080B400AF044B1B680133034A136000BFA2
S11312E0BD465DF8047B70479C00002080B485B047
S11312F000AF7860084B1B68FB6000BF064B1A68A0
S1131300FB68D31A7A689A42F8D800BF1437BD46EE
S11313105DF8047B704700BF9C00002080B500AFDF
S1131320FFF782FFFFF778FF0246174BA3FB022368
S11313309B091846FFF74EFF0346002B00D0FEE73B
S1131340FEF7A6FFFFF726FA6420FFF7CFFFFFF7AB
S1131350FFF90020FFF7A0F90346002B03D000207B
S1131360FEF7D6FF02E00020FEF7B2FF0120FFF7F0
S113137093F90346002B03D00120FEF7C9FFE3E7EE
S11313800120FEF7A5FFDFE7D34D621008B5074B38
S1131390044613B1002100E000BF054B1868836ABE
S11313A003B19847204600F031F800BF0000000068
S11313B04814000070B50D4E00250D4CA41BA4105C
S11313C0A54209D10B4E00250B4C00F021F8A41BBB
S11313D0A410A54205D170BD56F8253001359847B3
S11313E0EEE756F8253001359847F2E76C00002007
S11313F06C0000206C0000207000002002440346B2
S1131400934200D1704703F8011BF9E7FEE700BFE0
S1131410F8B500BFF8BC08BC9E467047F8B500BFDD
S1131420F8BC08BC9E4670470100000000000000A4
S1131430010000000100000002000000000500009F
S11314403F000000010000000C000020000000002C
S10B145024EDFF7F0100000000
S113145800F04902C0EA2101C0EA210100000000AD
S11314680000000000000000000000000000000070
S11314780000000000000000000000000000000060
S11314880000000000000000000000000000000050
S11314980000000000000000000000000000000040
S11314A80000000000000000000000000000000030
S11314B800000000000000000000000059010000C6
S10714C835010000E6
S9030351A8
